:1000000000200020F90000006704000067040000E1
:100010006704000067040000670400006504000036
:10002000650400006504000065040000670400002A
:100030006704000065040000670400006904000014
:10004000670400006704000067040000811B0000D3
:1000500067040000670400006704000067040000F4
:1000600067040000670400006704000067040000E4
:1000700067040000670400006704000067040000D4
:1000800067040000670400006704000067040000C4
:1000900067040000670400006704000067040000B4
:1000A00067040000670400006704000067040000A4
:1000B0006704000067040000670400006704000094
:1000C0006704000067040000670400004D0A000098
:1000D0006704000067040000670400006704000074
:1000E0006704000067040000670400006704000064
:1000F000670400006704000008B54A4B10214CF269
:1001000020524DF628101A80188023F80E1C00F09B
:10011000B3F9454B454A46481A605860454B196843
:1001200011F4807204D144484FF4A8510260196060
:10013000424B1A7802F00800C1B219B11A7842F0A5
:100140000800187000233E4A3E499818884204D29D
:100150003D48195899500433F5E73C493C4A9142CF
:100160004FF0000002D241F8040BF7E7394B3A4A4E
:1001700018600A21394B11702420A021187003F84F
:10018000011C374A107800F00203D9B20029F8D0D8
:10019000334A107800F01003D9B20029F8D1304A60
:1001A000107800F00C03082BF9D12E4803214022CF
:1001B000017042702A4B197801F02000C2B2002A67
:1001C000F8D0274B197801F04000C2B2002AF8D0CD
:1001D0002549264B264A19602020107020490B78AB
:1001E00003F00C000C28F9D12249234B02220A60AB
:1001F00041F8443C21494BF67F300722086041F822
:10020000042C62B600F092F90B4B1868C30702D5B4
:100210001B4800F051F901F095FD00F02DF900F0B8
:1002200085FFFEE70E20054038800440823F040031
:100230000100002B10D0034014D0034002D007402F
:1002400080090020380E0020B4200000380E002065
:10025000E01C002008ED00E0005006400140064090
:10026000064006400440064000000311448004405C
:100270000040064048800440C010050014E000E043
:1002800000DD6850FFFFFFFFFFFFFFFFFFFFFFFFE5
:10029000FFFFFFFFFFFFFFFFFFFFFFFFFFFFFFFF6E
:1002A000FFFFFFFFFFFFFFFFFFFFFFFFFFFFFFFF5E
:1002B000FFFFFFFFFFFFFFFFFFFFFFFFFFFFFFFF4E
:1002C000FFFFFFFFFFFFFFFFFFFFFFFFFFFFFFFF3E
:1002D000FFFFFFFFFFFFFFFFFFFFFFFFFFFFFFFF2E
:1002E000FFFFFFFFFFFFFFFFFFFFFFFFFFFFFFFF1E
:1002F000FFFFFFFFFFFFFFFFFFFFFFFFFFFFFFFF0E
:10030000FFFFFFFFFFFFFFFFFFFFFFFFFFFFFFFFFD
:10031000FFFFFFFFFFFFFFFFFFFFFFFFFFFFFFFFED
:10032000FFFFFFFFFFFFFFFFFFFFFFFFFFFFFFFFDD
:10033000FFFFFFFFFFFFFFFFFFFFFFFFFFFFFFFFCD
:10034000FFFFFFFFFFFFFFFFFFFFFFFFFFFFFFFFBD
:10035000FFFFFFFFFFFFFFFFFFFFFFFFFFFFFFFFAD
:10036000FFFFFFFFFFFFFFFFFFFFFFFFFFFFFFFF9D
:10037000FFFFFFFFFFFFFFFFFFFFFFFFFFFFFFFF8D
:10038000FFFFFFFFFFFFFFFFFFFFFFFFFFFFFFFF7D
:10039000FFFFFFFFFFFFFFFFFFFFFFFFFFFFFFFF6D
:1003A000FFFFFFFFFFFFFFFFFFFFFFFFFFFFFFFF5D
:1003B000FFFFFFFFFFFFFFFFFFFFFFFFFFFFFFFF4D
:1003C000FFFFFFFFFFFFFFFFFFFFFFFFFFFFFFFF3D
:1003D000FFFFFFFFFFFFFFFFFFFFFFFFFFFFFFFF2D
:1003E000FFFFFFFFFFFFFFFFFFFFFFFFFFFFFFFF1D
:1003F000FFFFFFFFFFFFFFFFFFFFFFFFFFFFFFFF0D
:10040000FFFFFFFFFFFFFFFFFFFFFFFFFEFFFFFFFD
:1004100010B5054C237833B9044810B10448AFF344
:1004200000800121217010BD380E00200000000066
:10043000B420000008B5064B1BB106480649AFF3CF
:1004400000800648016811B1054A02B1904708BD15
:1004500000000000B42000003C0E0020380E0020F8
:1004600000000000FEE7FEE7024B1A68501C18600F
:10047000704700BF540E00207047034A13681818D5
:1004800010601846704700BF8009002000207047A8
:10049000002070474FF0FF3070474FF0FF3070473B
:1004A000FEE7FEE701207047704700BF014B186868
:1004B000704700BF00D00340044B054900221A607A
:1004C0000A60044A106010201860704714D003407E
:1004D00004D0034000D0034000280EDB02024FF49A
:1004E0008073B2F5004F06D3013B012BC0EB020134
:1004F00001D00A46F5E7100A10E0404202024FF42C
:100500008073B2F5014F06D3013B012BC0EB020112
:1005100001D00A46F5E7110AC1F58070013B024996
:1005200040EA0320086070470CD00340104B114A8A
:1005300000204BF6FF7110B518600F4C596028234E
:100540001360936013619361136293621363936307
:1005500009222260094C20600948016009490B60AA
:100560008B60094B1A60BDE8104000F0DDBC00BF95
:10057000048003400C80034000800340049003404B
:10058000089003400C9003400090034018B11028DD
:1005900028BF102000E00120014B1870704700BFF9
:1005A0008409002010B500234FF4377242FA03F299
:1005B000914202D80133072BF6D1164A42FA03F2D0
:1005C00002EB5102B2FBF1F101394FF6FF72914299
:1005D00028BF1146C21E012A06D80F4A0F4C002020
:1005E000106020600E480FE0421F012A06D909283A
:1005F00004D00A2802D01438032809D8094A0A4C22
:10060000002010602060094843F008030160136077
:1006100010BD00BF006CDC0200900340049003405A
:10062000089003400080034004800340088003409A
:10063000212810B518D80D4A52F8303093F880426E
:100640003CB1012011B183F8800010BD83F8000196
:1006500010BD02EBC00043681A6811B142F00301FB
:1006600001E022F00201196010BD00BF241F00004C
:10067000212805D8034B53F8300090F8000270474A
:1006800000207047241F0000212816D80B4A02EBD7
:10069000C00301295B6852F8302004D182F880122F
:1006A0004FF4A27108E0002082F8800211B94FF4E3
:1006B000807101E040F2031119607047241F0000AF
:1006C00038B53B4B1A7801250029044605FA02F398
:1006D00001DC002102E0994205D32946FFF7A8FF7B
:1006E000204629465FE00338C3B2012B94BF314B4B
:1006F000314B1B6801334B4323FA02F3142849D8CA
:10070000DFE800F00B11171D4848232948484848E6
:1007100048484848482F353B410028484FF451721B
:100720000360274834E0274A274813604FF451728A
:100730002EE0264926480B6040F2444228E0254836
:1007400040F244420360244822E0244A24481360D3
:1007500040F244421CE0234923480B6040F24442EB
:1007600016E0224840F244420360214810E0214A4A
:100770002148136040F244420AE0204920480B60BF
:1007800040F2444204E01F491F480B6040F24442DB
:10079000026038BD7F292046D4BF00210121FFF728
:1007A00047FF20460121BDE83840FFF76DBF00BF7D
:1007B0008409002008900340088003401090034003
:1007C0003090044018900340349004404880034027
:1007D0001CC004403080034010C00440208003400F
:1007E0000CB004402880034010B00440388003401F
:1007F00014C004404080034018C0044010800340EF
:1008000004B004401880034008B0044072B60B4B9B
:100810000B480C491A680368086862B6410102D5A2
:10082000322A88BF0133C2F53B427F323021B2FB0E
:10083000F1F24FF47A7000FB0320704718E000E0FB
:10084000540E002004ED00E038B50446FFF7DEFF4B
:10085000054654B1FFF7DAFF401BB0F57A7FF9D3B4
:10086000013C02D005F57A75F4E738BD1FB5154B8C
:1008700015491868154C03900A68154802922368B8
:1008800001930168134B009100221DF802401248A9
:10089000634001324343102AF7D100221DF80210B1
:1008A0000D4C0E484B4063431A21B3FBF1F400EBAF
:1008B000420001FB143101324131102A4180EDD157
:1008C0001FBD00BF54800440588004405C80044039
:1008D00060800440C59D1C819301000186090020B1
:1008E00070B50C4B0C4C1A7842F0020504EBC506AF
:1008F00082F00102706058781A7000280CBF8826B8
:10090000C82646EA014180F0010044F835105870CD
:1009100070BD00BF580E002000E0FF1F01280CD161
:1009200072B6074B586808B142685A60054B028896
:100930001988891A198062B670470020704700BF75
:10094000580E0020DC1C002001280AD1064B9968B3
:1009500072B6002019B10A8849688018FAE762B6B1
:1009600070470020704700BF580E0020012809D1B1
:10097000054B996872B6002011B101304968FBE758
:1009800062B6704700207047580E002072B6104BB8
:10099000197801F00802D3B22BB10E4B0E4A196A36
:1009A00039B1996A51B162B60B4B00221A7300F04B
:1009B00031BB0A4908305862196203E00830D86236
:1009C00007489862137B581E107362B6704700BFC9
:1009D0003420000000E0FF1F580E00208800400077
:1009E000C8004000012828D172B61448437B032B6D
:1009F00008D8DFE803F010021204022200E004220B
:100A00000F4B0CE082680D4B0AB9996001E01B693D
:100A10005960016110E0032200E00522094B427396
:100A200013F0080F01F10800098858600CBF8822F4
:100A3000C82242EA0140186062B67047580E002092
:100A400038E0FF1F30E0FF1F00BE70472DE9F04186
:100A5000924B187800F00402D1B261B1904B1A7F2A
:100A600032B1597F21B14A1ED1B2597701B900BEC6
:100A70008A4A0423137000F00801CAB2002A00F069
:100A8000FB81884D2978884D0C094FEA910740F089
:100A90006E8155F8370005EBC701C0F383024B6840
:100AA000511E0C2900F25F81DFE811F03801380196
:100AB0005D015D015D015D015D015D013C015D0167
:100AC0005D015D010D001C687548784A5B687649D8
:100AD00045F837200462A2B240F202340125436295
:100AE0000023A24283620B618B61457000F0A980F4
:100AF00014D8822A00F0848005D8802A40F0C8806B
:100B000003754375E0E0B2F5817F00F08C80B2F5AB
:100B1000A07F40F0BD8005264677BDE040F28164AD
:100B2000A24208D8B2F5D06F80F09A80B2F5A06FDB
:100B300040F0AE80B0E0B2F5086F5BD0B2F5106F58
:100B400040F0A68090F822400E6A0477300603D564
:100B5000486A083800F05EFA514E706820B1456866
:100B600000F058FA2846F9E77060F062B06820B1EA
:100B7000446800F04FFA2046F9E7494B4C4A597B4C
:100B8000986018611080881E032807D8DFE800F0FD
:100B900002040204002500E001255D7300261E7397
:100BA000444B454A19783E4C117001F00800C5B21B
:100BB000DDB100F003FA3C4E90B9237B3062591C42
:100BC000217300F0FBF9384D28B9A8623448027B44
:100BD000561C067309E0354B0830E862AB6204E04E
:100BE000364C083070623462EBE72F4900230B6308
:100BF0008B6351E0027F04462B4604F8142F66E015
:100C0000828C012A44D82E490375960043757318C7
:100C10001C7804F00202D6B2002E55D004460223FE
:100C200004F8145F53E0818C01F07F03012B2FDC6B
:100C3000438C6BBB22488D002E18347824F00202BE
:100C40000CE0818C01F07F03012B21DC438CFBB98C
:100C50001B4C88000619357845F0020232701BE003
:100C6000428C818C174B53F8084CA3F10C007CB1DB
:100C700033F80C5C954209D133F80A5C8D4205D1FA
:100C8000150A032D0CBF2378038920E00C33EAE713
:100C90000B4A0F2010703EE01C4618E080200740F1
:100CA000580E00209020074000E0FF1FC8004000C1
:100CB000DC1C002034200000C420074088004000D5
:100CC000C020074044200000022300F114048A4998
:100CD000CE8CB34238BF1E46402E34BF3546402529
:100CE00020462946FFF7FCFD761B2C4403D1402DFE
:100CF00011D1354603E0402E34BF3546402520460D
:100D00002946FFF7EDFD761B2C4401D1402D02D181
:100D1000794B9C621E860120784923E0784A45F889
:100D2000372020E0744EB56A8DB1378E402F34BF26
:100D30003C46402421462846FFF7D2FD391B8BB2A2
:100D400033860BB9402C00D12B196B4883626A495A
:100D50000A8CB2F5A06F06D1002381F8213091F8FA
:100D6000220068490870654B0120187080E005EB8F
:100D7000C70601F008027368013CD2B2A3F1080073
:100D8000E4B2002A3FD000F045F95B4B03EB84014D
:100D90008A680AB350688860181902F10801716006
:100DA000417B03290FD8DFE801F00205080B1C196D
:100DB000032307E01C19022304E01C19052301E0AA
:100DC0001C190423637316F0080F12880CBF8820C7
:100DD000C82040EA024349E01819427B032A0AD896
:100DE000DFE802F0464602051C19002301E01C1949
:100DF000012363733CE016F0080F1C440CBF022172
:100E00000321617334E055F83710090C23F8081CEE
:100E100031B3DFF8E4C023F8062C4FEA840E43F820
:100E2000042C0CEB0E035A6802B1DB6A0CEB0E02C9
:100E30005860D0623448DFF8C08030F81430C918E8
:100E400020F8141000F0BAF810B10830706007E014
:100E500098F80C2045F83700501C88F80C0007E083
:100E6000274B2A4916F0080F08BF0B4645F83730C4
:100E7000274A08211170EBE5C10721D51F48254BF2
:100E8000224D022404701C4C1D602146743401F86C
:100E9000342B1A6159609A619D60DC601E4B0D21F4
:100EA00019701E49FF230B7001F8083C0A741C4A94
:100EB00013701C4B9F21012219700270BDE8F08154
:100EC000020605D5144A0D238021137002F8401C38
:100ED00000F00203DAB22AB1104B1978022219701D
:100EE00003F8082C00F01000C3B213B1084A102117
:100EF0001170BDE8F08100BF580E0020942007401B
:100F0000C800400098200740DC1C002088004000FA
:100F10008020074000E0FF1FC020074088200740D6
:100F20008C2007408420074008B5FFF79FFC1D4B2D
:100F30001D4800221A609A601A619A611A6201685B
:100F40005A60DA605A61DA615A6241F480220260C2
:100F50001648802101700178144A0906FBD414490F
:100F6000C3F307200870C3F3074008751B0EFF206A
:100F70000B7601F81C0C01F8140C01F88C0C11789C
:100F8000012041F040030021137002F8780C094B56
:100F900002F80C1C084902F8880C082210201A607C
:100FA000087008BD00E0FF1F348004400C2107409A
:100FB0009C20074004E100E00821074010B572B60C
:100FC0000023124A52F8231011B90133042BF8D12F
:100FD000B1FA81F000EB4312672A02D962B6002011
:100FE00010BD02F01F004FF0004424FA00F021EA87
:100FF0000001064840F8231062B6054948235A43C9
:10100000881800238B50436010BD00BF000A0020E9
:1010100040ECFF1F0F4B4822C11AB1FBF2F3672BC4
:1010200016D80D490A7822B10C490A780AB1FFF79F
:10103000ADBC590972B60A4A4FF0004003F01F03D5
:1010400020FA03F352F82100034342F8213062B63C
:10105000704700BF40ECFF1F640E0020740E00209C
:10106000000A0020F0B516781D785F789B78059C03
:10107000464301FB0566557892784543504301FB92
:101080000300294B01FB0755310EC6F3074203EB62
:101090004106B6F8AC11B6F8AE71C2F580764E4393
:1010A00002FB07662F0EC5F3074203EB4705B5F8B1
:1010B000AE13B5F8B073C2F580754D4302FB07550A
:1010C000020E03EB4203C0F30740B3F8B025B3F8B8
:1010D000B27594F90010C0F58073534300FB0730DC
:1010E00094F9012094F9023001EB162602EB152544
:1010F00003EB102106F1800080F31002100A05F1C5
:101100008003361A83F310020002120A01F18003F1
:1011100083F310031B0AAD1AC91A40EA0240267075
:101120006570A1701843F0BD0C0F00202DE9F04F41
:101130000D208BB00121FFF7A7FA104800F044FC06
:10114000DFF840A0504600F0EBFB9AF8B23703F00E
:101150000200C1B2C1B90A4ADAF804101368DAF819
:101160000020099309984B6E516EC01A5A1A90428A
:1011700028BF10460304B3FBF2F107E0C01C0020B7
:10118000540E00200C0F00204FF480316FF480705B
:101190004843EC4A00F18073EB48D2F800C0059058
:1011A00003F5803201EB012100230692079104939D
:1011B000049ADFF898A34FF0150BB2FBFBF10BFB81
:1011C000112303204343DAF80020DAF8040052F830
:1011D000212050F821E00599069800910933D21892
:1011E0000799CDF80CC07344FFF73CFF430860F348
:1011F0001869820863F310490309C10862F30829DA
:1012000063F31868420961F3000962F31048810929
:10121000020AC30961F3082862F31867410A63F3FD
:10122000000861F31047830A010BC20A63F3082721
:1012300061F31866430B62F3000763F31046820BF9
:10124000030C62F3082663F31865420CC10B62F3CA
:101250001045020D61F3000662F31864810C049AD4
:10126000C30C61F3082520FA0BF1403263F300054B
:1012700061F31044830DB2FBFBF1C00D63F308244E
:1012800060F300040BFB112303204343DAF8002032
:10129000DAF8040052F8212050F821C00599069888
:1012A0000933C031D218009163440799FFF7DAFE81
:1012B000430860F35969820863F351490309C1087F
:1012C00062F3492963F35968420961F3410962F302
:1012D00051488109020AC30961F3492862F3596739
:1012E000410A63F3410861F35147830A010BC20AC3
:1012F00063F3492761F35966430B62F3410763F3D4
:101300005146820B030C62F3492663F35965420C84
:10131000C10B62F35145020D61F3410662F359645A
:10132000810C049AC30C61F3492520FA0BF1803239
:1013300063F3410561F35144830DB2FBFBF1C00D32
:1013400063F3492460F341040BFB1123032043435F
:10135000DAF80020DAF8040052F8212050F821E0F1
:101360000599093301F5C070D218009073440799AC
:101370000698FFF777FE430860F39A69820863F3E3
:1013800092490309C10862F38A2963F39A68420902
:10139000C30961F3820962F392488109020A61F389
:1013A0008A2862F39A67410A63F3820861F39247DD
:1013B000830A010BC20A63F38A2761F39A66430B1F
:1013C00062F3820763F39246820B030C62F38A2670
:1013D00063F39A65420CC10B62F39245020D61F30F
:1013E000820662F39A64810C049AC30C61F38A2525
:1013F00020FA0BF1C03263F3820561F39244830D4E
:10140000B2FBFBF1C00D63F38A2460F382040BFB93
:10141000112303204343DAF80020DAF8040052F8DD
:10142000212050F821C00599093301F51070D21818
:101430000090634407990698FFF714FE430860F391
:10144000DB69820863F3D3490309C10862F3CB293E
:1014500063F3DB68420961F3C30962F3D34881098E
:10146000020AC30961F3CB2862F3DB67410A63F325
:10147000C30861F3D347830A010BC20A63F3CB2786
:1014800061F3DB66430B62F3C30763F3D346820B5E
:10149000030CC10B62F3CB2663F3DB65420C61F3F3
:1014A000C30662F3D345810C020DC30C61F3CB2557
:1014B00062F3DB6420FA0BF1049A63F3C30561F372
:1014C000D344830D63F3CB2402F58073B3FBFBF1AC
:1014D000C00D0BFB113360F3C30403204343DAF860
:1014E0000020DAF8040052F8212050F821E0059994
:1014F000093301F54070D21800907344079906989B
:10150000FFF7B0FD430860F31C79820863F31459B8
:101510000309C10862F30C3963F31C78420961F3D3
:10152000041962F314588109020AC30961F30C38E3
:1015300062F31C77410A63F3041861F31457830ABA
:10154000010B05E0CC1C0020C01600200C0F002071
:10155000C20A63F30C3761F31C76430B62F3041782
:1015600063F31456820B030CC10B62F30C3663F366
:101570001C75420C61F3041662F31455810C020DC4
:10158000C30C61F30C3562F31C7420FA0BF1049A5E
:1015900063F3041561F31454830D63F30C3402F503
:1015A000A073B3FBFBF1C00D0BFB113360F304140C
:1015B00003204343DAF80020DAF8040052F821202F
:1015C00050F821C00599093301F57070D2180090C8
:1015D000634407990698FFF745FD430860F35D797A
:1015E000820863F355590309C10862F34D3963F367
:1015F0005D78420961F3451962F355588109020A81
:10160000C30961F34D3862F35D77410A63F345180E
:1016100061F35557830A010BC20A63F34D3761F337
:101620005D76430B62F3451763F35556820B030C4B
:10163000C10B62F34D3663F35D75420C61F34516E1
:1016400062F35555810C020DC30C61F34D3562F305
:101650005D7420FA0BF1049A63F3451561F3555458
:10166000830D63F34D3402F5C073B3FBFBF1C00D82
:101670000BFB113360F3451403204343DAF80020D9
:10168000DAF8040052F8212050F821E005990933D6
:1016900001F59060D2180090734407990698FFF7FF
:1016A000E1FC430860F39E79820863F396590309CD
:1016B000C10862F38E3963F39E78420961F386199B
:1016C00062F396588109020AC30961F38E3862F306
:1016D0009E77410A63F3861861F39657830A010BDC
:1016E000C20A63F38E3761F39E76430B62F386176B
:1016F00063F39656820B030C62F38E3663F39E758A
:10170000420CC10B62F39655020D61F3861662F32B
:101710009E74810C049AC30C61F38E3520FA0BF190
:1017200063F3861561F39654830D02F5E071C00DE5
:1017300063F38E34B1FBFBF30BFB131B60F38614D6
:10174000DAF80010032000FB0BF2DAF8040002F1D3
:10175000090C51F82320059950F8233001F5A860B1
:1017600062446344009007990698FFF77BFC4208A7
:1017700060F3DF79830862F3D7590209C10863F384
:10178000CF3962F3DF78430961F3C71963F3D758A0
:101790008109030AC20961F3CF3863F3DF77410A95
:1017A00062F3C71861F3D757820AC30A010B62F3C9
:1017B000CF3761F3DF76420B63F3C71762F3D75677
:1017C000830B020CC10B63F3CF3662F3DF75430C5E
:1017D00061F3C71663F3D755810C030DC20C61F397
:1017E000CF3563F3DF74410D62F3C71561F3D7544E
:1017F000820D049BDDF80CC062F3CF34059ACCF85F
:101800001080C00D591C60F3C714D01C40298CE80F
:10181000F000CCF81490CCF81840CCF81C50CCF860
:101820002060CCF82470CCF82880CCF82C9004915F
:101830000CF1300C05907FF4BBAC074800F0C2F906
:101840009AF8B237DB077FF57BAC00214FF4C0621A
:10185000024800F0C1FA73E4C01C0020C01600204A
:101860002DE9F0410F4C04F10C0704F174063846E1
:1018700000F01CF804F1DC05304600F017F82846AB
:1018800000F014F804F5A27000F010F8064A276082
:1018900006F55460802100236660A560BDE8F04134
:1018A00000F088B80C0F002040E0FF1F70B505461F
:1018B0000024FFF783FB00210646402200F10800C8
:1018C00000F08AFA2E510434642CF2D1284670BDFF
:1018D000064A83681268016882B00192019A5A66CA
:1018E0004268816080E80C0002B07047540E00200E
:1018F00010B500231F21B3FBF1F201FB123100EB05
:1019000082044A000A32D4F84411895A00EB430297
:101910000133A2F8AC1140F203318B42EAD110BD81
:1019200038B5044600250120FEF7F8FF024690B3C3
:10193000017A01F0200501F01F0301F0C0014029E8
:10194000EDB212D0802920D011BBA168182B9CBF0A
:1019500051F8230041F82320FFF75CFB0DB9012566
:10196000E1E72046FFF7B4FFF9E7182B05D804EBB1
:101970008303D3F84401C3F84421FFF74BFB002D48
:10198000EDD02046FFF7B4FFE9E7427A84F8B227AA
:10199000FFF740FBE3E794F8B21701F00400C2B28E
:1019A0000D2012B101F0080100E02946BDE83840E1
:1019B000FEF73EBE10B5034C21806260A260237327
:1019C00010BD00BFC41C0020F8B5584D584E2B88E0
:1019D000686818245C432246002100F0FDF9FF20CE
:1019E000012130600220FEF74FFE0E200121FEF79C
:1019F0004BFE07200121FEF747FE08200121FEF7DC
:101A000043FE06200121FEF73FFE14200121FEF7D0
:101A10003BFE15200121FEF737FE05200121FEF7D0
:101A200033FE297B434B444D01F01002D7B2002F07
:101A30000CBF1F462F460820FEF7A8FD394603209D
:101A4000FEF7B0FD39460420FEF7ACFD03203C2133
:101A5000FEF736FE0420B021FEF732FE3748384943
:101A6000384D086003200221FEF70EFE0F200021F2
:101A7000FEF70AFE344A354B35482A6002F50077F6
:101A80001F600168DFF8F0C041F02002026050F8EA
:101A9000045C304A304945F0020740F8047C2F4886
:101AA0002F4F00230360C360012017609380D38011
:101AB0009060D3601161A1B29382D18293610822B8
:101AC000ACF80020ACF80210ACF80800ACF80A3012
:101AD000CCF80C00C4F1000C224CC4F800C0DFF8B4
:101AE0009CC0C4F804C023816181E36022826182CA
:101AF000676123836383E0611B481D460360466082
:101B000003814181C360194B0A201880184859800D
:101B1000B2210570B3230170B12145704370857007
:101B2000817014481C340260F8BD00BFC41C002042
:101B3000C8F00F4000350C00801A060000030100B9
:101B400000A0044000B004400001020034900440B2
:101B50004080044020900040C4F00F4000800040CE
:101B60008C2000004C9000406C9000407C90004025
:101B70000110024000E100E03C900040C0F00F4046
:101B800008B5054B03221A70FEF740FE03490861B1
:101B90000020087508BD00BF1F800040C41C002045
:101BA00010B5074C237D43B9FEF730FE2169401A7A
:101BB00031288CBF0020012010BD012010BD00BFC6
:101BC000C41C002008B5194B1A7D002AFBD15868A7
:101BD00017490860FEF71AFE144A1369C01A312823
:101BE000F8D9144B196818331B6872B601201075A8
:101BF000114A10689842FBD910689842FCD81068C6
:101C00009842FCD30B4B0D4801F0E7021A60012209
:101C1000026000F580500260094A4FF400501060E5
:101C2000084A0E201060196062B608BDC41C00206E
:101C3000409000400090034004900340A0A0044066
:101C4000A09004400C8000402DE9F041274C25680D
:101C5000D5F8484184B00746002C41D066681F2E55
:101C60001CDD234810B94FF0FF301FE04FF4C8705F
:101C7000039102920193AFF300800399029A019BB2
:101C800004460028EFD0D5F8486100206060266047
:101C9000C5F84841C4F88801C4F88C01656847B9A3
:101CA000A81C013544F820106560002004B0BDE890
:101CB000F081D4F88861012004EB850800FA05F072
:101CC0000643022FC8F88820C4F88861C8F8083194
:101CD000E6D1D4F88C3143EA0002C4F88C21DFE766
:101CE00005F5A674C5F84841B8E700BF9420000088
:101CF0000000000070B5114B114C181B811018D05A
:101D000004EB81044E1E354654F8042D06F00106FE
:101D1000904775B126B154F8043D9847013D08D06D
:101D200054F8040D8047013D54F8041D8847013DD7
:101D3000F6D1BDE8704000F0BBB900BF0000000064
:101D400000000000F8B5204F204C381B871017D03A
:101D50007A1E2368012502F001069847AF420FD092
:101D60002EB154F8041F02258847AF4208D060689E
:101D700080470235A268261D90470834AF42F6D14D
:101D8000134F144C00F088F93B1B9F1018D07D1E98
:101D9000216805F0010601258847AF4211D02EB118
:101DA00054F8040F02258047AF420BD06268904779
:101DB0000235A368261D98470834AF42F6D1F8BD16
:101DC000F8BDF8BDF8BD00BFA4200000A4200000AD
:101DD000B0200000A4200000F0B48407034600F007
:101DE0008E80541E002A00F08880E507CEB211D400
:101DF0001A46671E02F8016B1346154692070FD06C
:101E0000002C7AD003F8016B9A073C461D4607D098
:101E1000013CEDE7034603F8016B9A071D46F7D135
:101E2000032C52D9CEB246EA06270F2C47EA0743C5
:101E30002DD9A4F1100217460F2FC2F300162B6004
:101E40006B60AB60EB6005F1100216D93EB1103F3C
:101E5000136053609360D36010320F2F0DD9203F71
:101E600002F11006136053609360D36013615361F5
:101E70009361D36120320F2FF1D8A4F1100222F028
:101E80000F0204F00F041032032C15441DD9271F34
:101E90003E462A46032E42F8043BC7F380070DD97D
:101EA00027B1043E032E42F8043B07D91746083EEB
:101EB00047F8043B53603A1D032EF7D8231F23F045
:101EC0000302131D04F00304ED18B4B12B46C9B28C
:101ED00003F8011B2C19ED436219A34202F001051E
:101EE0000BD01DB103F8011BA34206D01A4602F81D
:101EF000011B5970531CA342F8D1F0BC7047054632
:101F000014468DE7024B13B1024800F005B8704744
:101F100000000000F51C00000146002002460346B8
:101F2000FFF792BE4008FE4340A004404408FE4331
:101F300044A004400018FE4300C004403000FE43AB
:101F4000309004403400FE43349004401C18FE439B
:101F50001CC004401018FE4310C004400818FE4383
:101F600008C004400C18FE430CC004400C10FE4393
:101F70000CB004401010FE4310B004401810FE4393
:101F800018B004401C10FE431CB004401410FE4363
:101F900014B004400418FE4304C004400010FE4383
:101FA00000B004400008FE4300A004400408FE43C3
:101FB00004A004400C08FE430CA004400808FE43A3
:101FC00008A004401418FE4314C004401818FE432F
:101FD00018C004400410FE4304B004400810FE433F
:101FE00008B004401400FE43149004404C08FE4323
:101FF0004CA004400420FE4304D004402410FE43BF
:1020000024B004402010FE4320B004402810FE43BA
:1020100028B004402C10FE432CB004400020FE43A6
:1020200000D004404808FE4348A004401000FE438E
:10203000109004401900000000010000D2090020A7
:102040001200000000020000E40900201900000056
:1020500000030000CE090020000000000103090475
:10206000BC0900200000000002030904A8090020A8
:10207000000000000303090486090020000000009E
:10208000000000000000000000000000FFFFFFFF54
:1020900043000000100A0020F8B500BFF8BC08BCDF
:1020A0009E467047051F00003504000061180000BF
:0420B000F8B500BFC0
:1020B400E01C0020080022030000000000000000D3
:1020C400000000000000000000000000000000000C
:1020D40000000000000000001403460061006400DA
:1020E4006500630061006E006400790012037300F0
:1020F400630061006E006C0069006D0065000403FC
:10210400090412010002FF000040501D7A60010121
:102114000102030109021900010100C0320904008F
:102124000001FF000000070501024000000000005C
:10213400FFFFFFFFFFFFFFFFFFFFFFFFFFFFFFFFAB
:1021440000000000FC0C0020640D0020CC0D0020D9
:10215400000000000000000000000000000000007B
:10216400000000000000000000000000000000006B
:1021740000000000902000000000000000000000AB
:10218400000000000000000000000000000000004B
:10219400000000000000000000000000000000003B
:1021A400000000000000000000000000000000002B
:1021B400000000000000000000000000000000001B
:1021C400000000000000000000000000000000000B
:1021D40000000000000000000000000000000000FB
:1021E40000000000000000000100000000000000EA
:1021F4000E33CDAB34126DE6ECDE05000B000000AF
:1022040000000000000000000000000000000000CA
:1022140000000000000000000000000000000000BA
:1022240000000000000000000000000000000000AA
:10223400000000000000000000000000000000009A
:00000001FF
